{
  "contractName": "OldTokenMigrator",
  "abi": [
    {
      "inputs": [
        {
          "name": "legacyToken",
          "type": "address"
        }
      ],
      "payable": false,
      "stateMutability": "nonpayable",
      "type": "constructor",
      "signature": "constructor"
    },
    {
      "constant": true,
      "inputs": [],
      "name": "legacyToken",
      "outputs": [
        {
          "name": "",
          "type": "address"
        }
      ],
      "payable": false,
      "stateMutability": "view",
      "type": "function",
      "signature": "0x13155455"
    },
    {
      "constant": true,
      "inputs": [],
      "name": "newToken",
      "outputs": [
        {
          "name": "",
          "type": "address"
        }
      ],
      "payable": false,
      "stateMutability": "view",
      "type": "function",
      "signature": "0xc42bd05a"
    },
    {
      "constant": false,
      "inputs": [
        {
          "name": "newToken",
          "type": "address"
        }
      ],
      "name": "beginMigration",
      "outputs": [],
      "payable": false,
      "stateMutability": "nonpayable",
      "type": "function",
      "signature": "0x104d2614"
    },
    {
      "constant": false,
      "inputs": [
        {
          "name": "account",
          "type": "address"
        },
        {
          "name": "amount",
          "type": "uint256"
        }
      ],
      "name": "migrate",
      "outputs": [],
      "payable": false,
      "stateMutability": "nonpayable",
      "type": "function",
      "signature": "0xad68ebf7"
    },
    {
      "constant": false,
      "inputs": [
        {
          "name": "account",
          "type": "address"
        }
      ],
      "name": "migrateAll",
      "outputs": [],
      "payable": false,
      "stateMutability": "nonpayable",
      "type": "function",
      "signature": "0x5a8cadb1"
    }
  ],
  "bytecode": "0x608060405234801561001057600080fd5b50604051602080610b338339810180604052602081101561003057600080fd5b8101908080519060200190929190505050600073ffffffffffffffffffffffffffffffffffffffff168173ffffffffffffffffffffffffffffffffffffffff161415151561007d57600080fd5b806000806101000a81548173ffffffffffffffffffffffffffffffffffffffff021916908373ffffffffffffffffffffffffffffffffffffffff16021790555050610a66806100cd6000396000f3fe60806040526004361061006d576000357c0100000000000000000000000000000000000000000000000000000000900463ffffffff168063104d26141461007257806313155455146100c35780635a8cadb11461011a578063ad68ebf71461016b578063c42bd05a146101c6575b600080fd5b34801561007e57600080fd5b506100c16004803603602081101561009557600080fd5b81019080803573ffffffffffffffffffffffffffffffffffffffff16906020019092919050505061021d565b005b3480156100cf57600080fd5b506100d8610514565b604051808273ffffffffffffffffffffffffffffffffffffffff1673ffffffffffffffffffffffffffffffffffffffff16815260200191505060405180910390f35b34801561012657600080fd5b506101696004803603602081101561013d57600080fd5b81019080803573ffffffffffffffffffffffffffffffffffffffff16906020019092919050505061053d565b005b34801561017757600080fd5b506101c46004803603604081101561018e57600080fd5b81019080803573ffffffffffffffffffffffffffffffffffffffff16906020019092919080359060200190929190505050610781565b005b3480156101d257600080fd5b506101db6108d4565b604051808273ffffffffffffffffffffffffffffffffffffffff1673ffffffffffffffffffffffffffffffffffffffff16815260200191505060405180910390f35b600073ffffffffffffffffffffffffffffffffffffffff16600160009054906101000a900473ffffffffffffffffffffffffffffffffffffffff1673ffffffffffffffffffffffffffffffffffffffff161415156102e3576040517f08c379a00000000000000000000000000000000000000000000000000000000081526004018080602001828103825260148152602001807f61646472657373206973206e6f7420656d70747900000000000000000000000081525060200191505060405180910390fd5b600073ffffffffffffffffffffffffffffffffffffffff168173ffffffffffffffffffffffffffffffffffffffff1614151515610388576040517f08c379a00000000000000000000000000000000000000000000000000000000081526004018080602001828103825260128152602001807f6e657720746f6b656e20697320656d707479000000000000000000000000000081525060200191505060405180910390fd5b8073ffffffffffffffffffffffffffffffffffffffff1663aa271e1a306040518263ffffffff167c0100000000000000000000000000000000000000000000000000000000028152600401808273ffffffffffffffffffffffffffffffffffffffff1673ffffffffffffffffffffffffffffffffffffffff16815260200191505060206040518083038186803b15801561042157600080fd5b505afa158015610435573d6000803e3d6000fd5b505050506040513d602081101561044b57600080fd5b810190808051906020019092919050505015156104d0576040517f08c379a00000000000000000000000000000000000000000000000000000000081526004018080602001828103825260178152602001807f6e657720746f6b656e206973206e6f74206d696e74657200000000000000000081525060200191505060405180910390fd5b80600160006101000a81548173ffffffffffffffffffffffffffffffffffffffff021916908373ffffffffffffffffffffffffffffffffffffffff16021790555050565b60008060009054906101000a900473ffffffffffffffffffffffffffffffffffffffff16905090565b60008060009054906101000a900473ffffffffffffffffffffffffffffffffffffffff1673ffffffffffffffffffffffffffffffffffffffff166370a08231836040518263ffffffff167c0100000000000000000000000000000000000000000000000000000000028152600401808273ffffffffffffffffffffffffffffffffffffffff1673ffffffffffffffffffffffffffffffffffffffff16815260200191505060206040518083038186803b1580156105f957600080fd5b505afa15801561060d573d6000803e3d6000fd5b505050506040513d602081101561062357600080fd5b8101908080519060200190929190505050905060008060009054906101000a900473ffffffffffffffffffffffffffffffffffffffff1673ffffffffffffffffffffffffffffffffffffffff1663dd62ed3e84306040518363ffffffff167c0100000000000000000000000000000000000000000000000000000000028152600401808373ffffffffffffffffffffffffffffffffffffffff1673ffffffffffffffffffffffffffffffffffffffff1681526020018273ffffffffffffffffffffffffffffffffffffffff1673ffffffffffffffffffffffffffffffffffffffff1681526020019250505060206040518083038186803b15801561072657600080fd5b505afa15801561073a573d6000803e3d6000fd5b505050506040513d602081101561075057600080fd5b81019080805190602001909291905050509050600061076f83836108fe565b905061077b8482610781565b50505050565b6107cf8230836000809054906101000a900473ffffffffffffffffffffffffffffffffffffffff1673ffffffffffffffffffffffffffffffffffffffff16610917909392919063ffffffff16565b600160009054906101000a900473ffffffffffffffffffffffffffffffffffffffff1673ffffffffffffffffffffffffffffffffffffffff166340c10f1983836040518363ffffffff167c0100000000000000000000000000000000000000000000000000000000028152600401808373ffffffffffffffffffffffffffffffffffffffff1673ffffffffffffffffffffffffffffffffffffffff16815260200182815260200192505050602060405180830381600087803b15801561089457600080fd5b505af11580156108a8573d6000803e3d6000fd5b505050506040513d60208110156108be57600080fd5b8101908080519060200190929190505050505050565b6000600160009054906101000a900473ffffffffffffffffffffffffffffffffffffffff16905090565b600081831061090d578161090f565b825b905092915050565b8373ffffffffffffffffffffffffffffffffffffffff166323b872dd8484846040518463ffffffff167c0100000000000000000000000000000000000000000000000000000000028152600401808473ffffffffffffffffffffffffffffffffffffffff1673ffffffffffffffffffffffffffffffffffffffff1681526020018373ffffffffffffffffffffffffffffffffffffffff1673ffffffffffffffffffffffffffffffffffffffff1681526020018281526020019350505050602060405180830381600087803b1580156109ee57600080fd5b505af1158015610a02573d6000803e3d6000fd5b505050506040513d6020811015610a1857600080fd5b81019080805190602001909291905050501515610a3457600080fd5b5050505056fea165627a7a72305820852fb0f15dd99bbfc24470c3caff7110fb1b4abc2549a73d819553b420f8b9d50029",
  "source": "pragma solidity ^0.5.0;\n\nimport \"../node_modules/openzeppelin-solidity/contracts/token/ERC20/IERC20.sol\";\nimport \"../node_modules/openzeppelin-solidity/contracts/token/ERC20/ERC20Mintable.sol\";\nimport \"../node_modules/openzeppelin-solidity/contracts/token/ERC20/SafeERC20.sol\";\nimport \"../node_modules/openzeppelin-solidity/contracts/math/Math.sol\";\n\ncontract OldTokenMigrator {\n    using SafeERC20 for IERC20;\n\n    /// Address of the old token contract\n    IERC20 private _legacyToken;\n\n    /// Address of the new token contract\n    ERC20Mintable private _newToken;\n\n    /**\n     * @param legacyToken address of the old token contract\n     */\n    constructor (IERC20 legacyToken) public {\n        require(address(legacyToken) != address(0));\n        _legacyToken = legacyToken;\n    }\n\n    /**\n     * @dev Returns the legacy token that is being migrated.\n     */\n    function legacyToken() public view returns (IERC20) {\n        return _legacyToken;\n    }\n\n    /**\n     * @dev Returns the new token to which we are migrating.\n     */\n    function newToken() public view returns (IERC20) {\n        return _newToken;\n    }\n\n    /**\n     * @dev Begins the migration by setting which is the new token that will be\n     * minted. This contract must be a minter for the new token.\n     * @param newToken the token that will be minted\n     */\n    function beginMigration(ERC20Mintable newToken) public {\n        require(address(_newToken) == address(0), \"address is not empty\");\n        require(address(newToken) != address(0), \"new token is empty\");\n        require(newToken.isMinter(address(this)), \"new token is not minter\");\n\n        _newToken = newToken;\n    }\n\n    /**\n     * @dev Transfers part of an account's balance in the old token to this\n     * contract, and mints the same amount of new tokens for that account.\n     * @param account whose tokens will be migrated\n     * @param amount amount of tokens to be migrated\n     */\n    function migrate(address account, uint256 amount) public {\n        _legacyToken.safeTransferFrom(account, address(this), amount);\n        _newToken.mint(account, amount);\n    }\n\n    /**\n     * @dev Transfers all of an account's allowed balance in the old token to\n     * this contract, and mints the same amount of new tokens for that account.\n     * @param account whose tokens will be migrated\n     */\n    function migrateAll(address account) public {\n        uint256 balance = _legacyToken.balanceOf(account);\n        uint256 allowance = _legacyToken.allowance(account, address(this));\n        uint256 amount = Math.min(balance, allowance);\n        migrate(account, amount);\n    }\n}\n",
  "sourcePath": "/Users/crisgarner/Projects/community/community-token/contracts/OldTokenMigrator.sol",
  "compiler": {
    "name": "solc",
    "version": "0.5.0+commit.1d4f565a.Emscripten.clang"
  },
  "schemaVersion": "3.0.2",
  "updatedAt": "2019-04-01T22:22:42.027Z",
  "devdoc": {
    "methods": {
      "beginMigration(address)": {
        "details": "Begins the migration by setting which is the new token that will be minted. This contract must be a minter for the new token.",
        "params": {
          "newToken": "the token that will be minted"
        }
      },
      "constructor": {
        "params": {
          "legacyToken": "address of the old token contract"
        }
      },
      "legacyToken()": {
        "details": "Returns the legacy token that is being migrated."
      },
      "migrate(address,uint256)": {
        "details": "Transfers part of an account's balance in the old token to this contract, and mints the same amount of new tokens for that account.",
        "params": {
          "account": "whose tokens will be migrated",
          "amount": "amount of tokens to be migrated"
        }
      },
      "migrateAll(address)": {
        "details": "Transfers all of an account's allowed balance in the old token to this contract, and mints the same amount of new tokens for that account.",
        "params": {
          "account": "whose tokens will be migrated"
        }
      },
      "newToken()": {
        "details": "Returns the new token to which we are migrating."
      }
    }
  },
  "userdoc": {
    "methods": {}
  }
}